:020000040800F2
:100000008006002005850008BB7E0008BF7E000832
:1000100000000000000000000000000000000000E0
:10002000000000000000000000000000C37E000887
:100030000000000000000000C57E0008C77E000828
:1000400013350008BB440008CF44000827450008CA
:100050003F450008DF460008EF4B00088982000892
:10006000834C0008874C00088B4C00080F58000890
:100070005F580008EF5B00086F790008657F000893
:100080000B7A00088B8300084B8400089D840008CD
:10009000CB84000869820008D784000841850008E5
:1000A0004385000845850008478500084985000804
:1000B0004B8500084D8500084F850008F1B582B0DA
:1000C0008027BF03BE4C2068384320602168BD48AC
:1000D000084020602168BC4808402060BB4DBC48F7
:1000E000616801402960BB4962680A402A60A268D1
:1000F0000240A260A2680A40A26026000C36E268B4
:1001000010403060E068014031600298B24903F06D
:100110002BF90BD80299B14803F03AF903F090F9A2
:100120000200AFA1684603F0ADF90FE0216880201E
:100130000004084320600299A84803F029F903F05D
:100140007FF90200A6A1684603F09CF96846007892
:10015000302813D000D2C1E032282FD01FD334284A
:1001600052D03ED3362874D060D3382800D191E0E5
:1001700000D27FE0392800D19DE0AFE08020C004AC
:10018000216801432160C021C90462680A432A60D2
:10019000A2681043A060E068014331609EE02168DE
:1001A00090480840206080208004616801432960F5
:1001B000A168A160E168084330608FE08020C0043E
:1001C000216801432160626880218904114329600C
:1001D000A268C021C9041143A160E16808433060EE
:1001E0007CE021688020C0040843206080208004D7
:1001F000616801432960A1680843A060E168C020EC
:10020000C0040843306069E02168764808402060F7
:100210006168C020C0040843286080208004A16871
:100220000143A160E1680843306057E08020C004CA
:10023000216801432160616808432860A16880202B
:1002400080040843A060E168C020C0040843306017
:1002500044E08020C00421680143216061680843B4
:100260002860C020C004A1680143A160E168084380
:10027000306033E021688020C00408432060802083
:100280008004616801432960A168A160E1680843B6
:10029000306023E021688020C00408432060C02033
:1002A000C004616801432960A1680143A160E1685D
:1002B0000843306012E021688020C00408432060B9
:1002C000C020C004616801432960A26880218904BC
:1002D0001143A160E16808433060FFE76B4658783E
:1002E000302814D000D2D7E0322830D020D33428A0
:1002F00053D03FD3362800D189E075D3382800D1B8
:10030000A6E000D294E0392800D1B2E0C4E0802019
:100310004004216801432160C021490462680A4306
:100320002A60A2681043A060E06801433160B3E036
:100330002168B648084020608020000461680143BD
:100340002960A168A160E16808433060A4E08022D0
:100350005204206810432060606880210904014332
:100360002960A068C02149040143A160E0680243FC
:10037000326091E0216880204004084320608020A2
:100380000004616801432960A1680843A060E16836
:10039000C0204004084330607EE021689B4808404C
:1003A00020606168C0204004084328608020000469
:1003B000A1680143A160E168084330606CE000BFC0
:1003C000DC010020FFFF7FFFFFFFAAFAE001002011
:1003D000FF7FF0FFFFFF0FF80000C8420000204140
:1003E00025640000FFFFFFFB8020400421680143DB
:1003F0002160616808432860A168802000040843E8
:10040000A060E168C02040040843306044E08020E0
:100410004004216801432160616808432860C020CE
:100420004004A1680143A160E1680843306033E003
:100430002168802040040843206080200004616817
:1004400001432960A168A160E1680843306023E0AE
:1004500021688020400408432060C0204004616877
:1004600001432960A1680143A160E168084330604D
:1004700012E021688020400408432060C02252041A
:10048000606810432860A068802109040143A160CE
:10049000E06802433260FFE79878302812D000D23B
:1004A000B2E032282CD01ED334284BD039D3362892
:1004B00069D057D3382800D184E075D3392800D1CA
:1004C00091E0A1E08020C003216801432160C021A8
:1004D000C90362680A432A60A2681043A060E0680A
:1004E0000143316090E02068494901402160606823
:1004F00038432860A068A060E0680743376083E065
:100500008020C00321680143216061680F432F6090
:10051000A268C021C9031143A160E16808433060AB
:1005200072E020688021C90301432160606838437C
:100530002860A0680743A760E168C020C0030843A3
:10054000306061E021683248084020606168C02066
:10055000C00308432860A0683843A060E0680743F0
:10056000376051E08020C003216801432160616849
:1005700008432860A0680743A760E168C020C00363
:100580000843306040E08020C003216801432160BF
:10059000616808432860C020C003A1680143A160CE
:1005A000E168084330602FE021688020C0030843E1
:1005B0002060606838432860A068A060E068074356
:1005C000376021E021688020C00308432060C020FC
:1005D000C003616801432960A1680143A160E1682B
:1005E0000843306010E021688020C0030843206089
:1005F000C020C003616801432960A1680F43A76060
:10060000E16808433060FFE7F7BD0000FFFFFFFE31
:10061000FFFFBFFFF1B582B0BA4C21688020000314
:10062000084320602168B848084020602068B74926
:1006300001402160271DB6486168014039602600ED
:100640000836A1680140316025000C35E16808409A
:1006500028600298AF4902F087FE0BD80299AE4895
:1006600002F096FE02F0ECFE0200ACA1684602F039
:1006700009FF0FE0216880200004084320600299F0
:10068000A54802F085FE02F0DBFE0200A3A1684649
:1006900002F0F8FE6B461878302813D000D2C1E083
:1006A00032282FD01FD3342852D03ED3362874D0CE
:1006B00060D3382800D191E000D27FE0392800D102
:1006C0009DE0AFE08020C004216801432160C0218B
:1006D000C90462680A433A60A26810433060E06867
:1006E000014329609EE021688D48084020608020F9
:1006F0008004616801433960A1683160E1680843A2
:1007000028608FE08022D204206810432060606857
:100710008021890401433960A068C021C9040143D4
:100720003160E06802432A607CE021688020C004D8
:100730000843206080208004616801433960A1681B
:1007400008433060E168C020C0040843286069E0C5
:1007500021687348084020606168C020C0040843D5
:10076000386080208004A16801433160E16808435B
:10077000286057E08020C00421680143216061683F
:1007800008433860A1688020800408433060E16835
:10079000C020C0040843286044E08020C0042168D1
:1007A00001432160616808433860C020C004A1682B
:1007B00001433160E1680843286033E0216880200C
:1007C000C0040843206080208004616801433960D0
:1007D000A1683160E1680843286023E02168802037
:1007E000C00408432060C020C00461680143396030
:1007F000A16801433160E1680843286012E0216884
:100800008020C00408432060C022D20460681043E6
:100810003860A0688021890401433160E0680243A8
:100820002A60FFE75878302814D000D2D2E032286E
:1008300030D020D3342853D03FD3362800D184E0A1
:1008400070D3382800D1A1E000D28FE0392800D140
:10085000ADE0BFE080225204206810432060C02039
:100860004004616801433960A1680A433260E1686D
:1008700008432860AEE02168BA4808402060802024
:100880000004616801433960A1683160E168084390
:1008900028609FE080225204206810432060616835
:1008A0008020000408433860A068C0214904014347
:1008B0003160E06802432A608CE0216880204004B7
:1008C0000843206080200004616801433960A1680A
:1008D00008433060E168C02040040843286079E0A4
:1008E0002168A048084020606168C0204004084397
:1008F000386080200004A16801433160E16808434A
:10090000286067E0DC010020FFFFFDFFFFFFBFFA6A
:10091000FFFF1FF80000C84200002041253364009B
:10092000FFFFFFFB802040042168014321606168D4
:1009300008433860A1688020000408433060E16803
:10094000C02040040843286044E08020400421681F
:1009500001432160616808433860C0204004A168F9
:1009600001433160E1680843286033E0216880205A
:10097000400408432060802000046168014339601E
:10098000A1683160E1680843286023E02168802085
:10099000400408432060C02040046168014339607E
:1009A000A16801433160E1680843286012E02168D2
:1009B0008020400408432060C02252046068104335
:1009C0003860A0688021090401433160E068024377
:1009D0002A60FFE79878302813D000D2C1E032288F
:1009E0002FD01FD3342852D03ED3362874D060D3B2
:1009F000382800D191E000D27FE0392800D19DE075
:100A0000AFE08020C003216801432160C021C903F9
:100A100062680A433A60A26810433060E0680143AC
:100A200029609EE0206850490140216080208003B9
:100A3000616801433960A1683160E168084328605A
:100A40008FE08020C003216801432160626880211B
:100A5000890311433960A168C022D2030A4332607E
:100A6000E168084328607CE021688020C0030843D7
:100A7000206080208003616801433960A1680843D9
:100A80003060E068C021C9030143296069E0206843
:100A90003549014021606068C021C90301433960C4
:100AA00080208003A16801433160E1680843286029
:100AB00057E08020C003216801432160616808433A
:100AC0003860A1688020800308433060E168C0205E
:100AD000C0030843286044E08020C003216801432C
:100AE0002160616808433860C020C003A1680143E9
:100AF0003160E1680843286033E021688020C0034A
:100B00000843206080208003616801433960A16848
:100B10003160E1680843286023E021688020C00339
:100B200008432060C020C003616801433960A168A8
:100B300001433160E1680843286012E021688020A9
:100B4000C00308432060C020C003616801433960CE
:100B5000A2688021890311433160E168084328605D
:100B6000FFE7F7BDFFFFFFFEFFFFBFFFF1B582B05C
:100B70002E4C21682E4808402060271D2D486168B2
:100B80000140396026000836A16801403160250027
:100B90000C35E168084028602168D648084020608C
:100BA000D548616801403960A16801403160E16861
:100BB000084028607020C0432168014021606168BE
:100BC000084038607820C043A16801403160E16886
:100BD00008402860216880200002084320602168C6
:100BE000022008432060029802F09EFA029802F068
:100BF00027FCC0B20200C1A1684602F043FC6B466C
:100C00001878302818D000D2B3E0322831D023D35E
:100C100034284FD03ED336286DD05BD3382800D14E
:100C200088E079D3392800D194E0A2E0DC010020EB
:100C3000FFFFFFDFFBFFFFDF80208005216801430E
:100C40002160AF4962680A433A60A268104330608D
:100C5000E068014329608CE02068206080208005E6
:100C6000616801433960A16808433060E06828602A
:100C70007FE0802292052068104320606068042194
:100C800001433960A0689E4901433160E068024336
:100C90002A606EE080229205206810432060606820
:100CA00010433860A068964901433160E068024310
:100CB0002A605EE02068206061688020800508432B
:100CC0003860A1688E4808433060E168042008431A
:100CD00028604EE080208005216801432160616822
:100CE00008433860A168042008433060E168844804
:100CF000084328603DE02068802189050143216088
:100D00007F4A606810433860A06804210143316065
:100D1000E06802432A602CE0206820608020800583
:100D2000616801433960A16801433160E1680843AB
:100D300028601EE0216880208005084320607048FC
:100D4000616801433960A16801433160E16808438B
:100D500028600EE0802080052168014321606168E1
:100D6000084338606648A16801433160E168084380
:100D700028605878302812D000D2B9E032282CD020
:100D80001ED334284DD03BD336286FD05BD33828C0
:100D900000D18CE07DD3392800D199E0A8E08020F3
:100DA0000005216801432160C021490562680A43AA
:100DB0003A60A26810433060E0680143296097E020
:100DC0002068206080200005616801433960A168C7
:100DD00008433060E06828608AE0802000052168D0
:100DE0000143216062688021490511433960A1688F
:100DF000C02252050A433260E1680843286077E068
:100E00008020000521680143216061680143396049
:100E1000A168C02252050A433260E1680843286095
:100E200066E0206820606168802000050843386023
:100E3000A168C020400508433060E168802040057B
:100E40000843286054E080200005216801432160A8
:100E5000616808433860A16880204005084330601D
:100E6000E168C02040050843286041E021688020F7
:100E7000000508432060C0204005616801433960D7
:100E8000A2688021490511433160E1680843286068
:100E90002EE02068206080200005616801433960F1
:100EA000A16801433160E1680843286020E02168BF
:100EB0008020000508432060C02040056168014390
:100EC0003960A16801433160E168084328600FE0A0
:100ED0008020000521680143216061680843386073
:100EE000C0204005A16801433160E16808432860E3
:100EF000F7BD0000FFFFFFF7FFFFFFE725326400AB
:100F000004000020F1B584B0BD4C2168BD48084004
:100F10002060271DBC48616801403960BB49626898
:100F20000A403A6026000836A26802403260A26891
:100F30000A40326025000C35E26810402860E06805
:100F400001402960002000900498B14902F0BAFAEB
:100F50000CD20499AF4802F01BFA02F0C7FA0090D5
:100F60002068802189020143216007E0049802F093
:100F7000BDFA00902168A84808402060009AA7495F
:100F800001A802F07FFA01ABD878202801D13020E7
:100F9000D8701878302813D000D2C1E032282FD072
:100FA0001FD3342852D03ED3362874D060D338288B
:100FB00000D191E000D27FE0392800D19DE0AFE080
:100FC0008020C004216801432160C021C9046268F7
:100FD0000A433A60A26810433060E0680143296028
:100FE0009EE021688E48084020608020800461686F
:100FF00001433960A1683160E168084328608FE0EF
:101000008022D20420681043206060688021890417
:1010100001433960A068C021C90401433160E06820
:1010200002432A607CE021688020C00408432060DD
:1010300080208004616801433960A1680843306002
:10104000E168C020C0040843286069E02168744852
:10105000084020606168C020C004084338608020D8
:101060008004A16801433160E1680843286057E0CB
:101070008020C00421680143216061680843386012
:10108000A1688020800408433060E168C020C0046B
:101090000843286044E08020C004216801432160A7
:1010A000616808433860C020C004A1680143316012
:1010B000E1680843286033E021688020C0040843C9
:1010C000206080208004616801433960A16831603C
:1010D000E1680843286023E021688020C0040843B9
:1010E0002060C020C004616801433960A1680143E9
:1010F0003160E1680843286012E021688020C00464
:1011000008432060C022D204606810433860A068A1
:101110008021890401433160E06802432A60FFE7CF
:101120005878302814D000D2D6E0322830D020D3DE
:10113000342853D03FD3362800D188E074D33828E0
:1011400000D1A5E000D293E0392800D1B1E0C3E09E
:1011500080225204206810432060C020400461684F
:1011600001433960A1680A433260E168084328609E
:10117000B2E021682B4808402060802000046168AC
:1011800001433960A1683160E16808432860A3E049
:101190008022520420681043206060688021090486
:1011A00001433960A068C021490401433160E0680F
:1011B00002432A6090E021688020400408432060B8
:1011C00080200004616801433960A16808433060F1
:1011D000E168C0204004084328607DE02168114890
:1011E000084020606168C0204004084338608020C7
:1011F0000004A16801433160E168084328606BE0A6
:10120000DC010020FFFFAAFAFF7FF0FFFFFF0FF8CD
:1012100000007A4400002041FFFFFDFF38850008F0
:10122000FFFFFFFBFFFFFFFE80204004216801431A
:101230002160616808433860A16880200004084389
:101240003060E168C02040040843286044E080200A
:101250004004216801432160616808433860C02070
:101260004004A16801433160E1680843286033E02D
:1012700021688020400408432060802000046168C9
:1012800001433960A1683160E1680843286023E0C8
:1012900021688020400408432060C0204004616829
:1012A00001433960A16801433160E1680843286067
:1012B00012E021688020400408432060C0225204CC
:1012C000606810433860A0688021090401433160E0
:1012D000E06802432A60FFE79878302813D000D2F4
:1012E000C1E032282FD01FD3342852D03ED3362825
:1012F00074D060D3382800D191E000D27FE0392843
:1013000000D19DE0AFE08022D2032068104320602E
:10131000C020C003616801433960A1680A4332609C
:10132000E168084328609EE0216886480840206004
:1013300080208003616801433960A1683160E16801
:10134000084328608FE08022D20320681043206089
:1013500060688021890301433960A068C021C90306
:1013600001433160E06802432A607CE0216880200C
:10137000C003084320608020800361680143396016
:10138000A16808433060E168C020C00308432860BA
:1013900069E021686B48084020606168C020C00394
:1013A0000843386080208003A16801433160E16810
:1013B0000843286057E08020C00321680143216072
:1013C000616808433860A16880208003084330606A
:1013D000E168C020C0030843286044E08020C003C7
:1013E000216801432160616808433860C020C00360
:1013F000A16801433160E1680843286033E0216857
:101400008020C0030843206080208003616801437E
:101410003960A1683160E1680843286023E02168F1
:101420008020C00308432060C020C00361680143DE
:101430003960A16801433160E1680843286012E027
:1014400021688020C00308432060C022D203606866
:1014500010433860A0688021890301433160E0684F
:1014600002432A60FFE7D878302813D000D2C5E0C5
:1014700032282FD01FD3342852D03ED3362878D0EC
:1014800064D3382800D195E000D283E0392800D118
:10149000A1E0B3E080225203206810432060C02006
:1014A0004003616801433960A1680A433260E16822
:1014B00008432860A2E0216823480840206080207B
:1014C0000003616801433960A1683160E168084345
:1014D000286093E0802252032068104320606168F6
:1014E0008020000308433860A068C02149030143FD
:1014F0003160E06802432A6080E021688020400378
:101500000843206080200003616801433960A168BE
:1015100008433060E168C0204003084328606DE064
:1015200021680948084020606168C02040030843E2
:10153000386080200003A16801433160E1680843FE
:1015400028605BE0FFFFBFFFFFFFEFFF802040034D
:10155000216801432160616808433860A1688020E8
:10156000000308433060E168C0204003084328605E
:1015700044E0802040032168014321606168084302
:101580003860C0204003A16801433160E16808432E
:10159000286033E0216880204003084320608020D9
:1015A0000003616801433960A1683160E168084364
:1015B000286023E021688020400308432060C02089
:1015C0004003616801433960A16801433160E1680B
:1015D0000843286012E0216880204003084320600F
:1015E000C0225203606810433860A068802109035C
:1015F00001433160E06802432A60FFE71879302830
:1016000013D000D2C1E032282FD01FD3342852D0BB
:101610003ED3362874D060D3382800D191E000D270
:101620007FE0392800D19DE0AFE08022D20220681F
:1016300010432060C020C002616801433960A16886
:101640000A433260E168084328609EE02168B3489D
:101650000840206080208002616801433960A168F1
:101660003160E168084328608FE08022D202206860
:101670001043206061688020800208433860A068C1
:10168000C021C90201433160E06802432A607CE066
:1016900021688020C00208432060802080026168A9
:1016A00001433960A16808433060E168C020C0028E
:1016B0000843286069E02168984808402060616814
:1016C000C020C0020843386080208002A168014326
:1016D0003160E1680843286057E08020C00221683B
:1016E00001432160616808433860A168802080025E
:1016F00008433060E168C020C0020843286044E02D
:101700008020C0022168014321606168084338607D
:10171000C020C002A16801433160E168084328602D
:1017200033E021688020C0020843206080208002CE
:10173000616801433960A1683160E168084328604D
:1017400023E021688020C00208432060C020C0023E
:10175000616801433960A16801433160E168084371
:10176000286012E021688020C00208432060C02267
:10177000D202606810433860A0688021890201436A
:101780003160E06802432A60FFE75879302813D0BF
:1017900000D2C1E032282FD01FD3342852D03ED3FC
:1017A000362874D060D3382800D191E000D27FE091
:1017B000392800D19DE0AFE080204002216801433C
:1017C0002160C021490262680A433A60A26810435E
:1017D0003060E068014329609EE020685049014084
:1017E000216080200002616801433960A168316096
:1017F000E168084328608FE08020400221680143AF
:1018000021606168802212020A433A60A168C02206
:1018100052020A433260E168084328607CE0206895
:101820008021490201432160802000026168014358
:101830003960A16808433060E068C0214902014373
:10184000296069E021683648084020606068C0214E
:1018500049020143396080200002A16801433160E0
:10186000E1680843286057E0802040022168014376
:101870002160616808433860A06880210902014343
:101880003160E068C02149020143296044E08020C2
:101890004002216801432160616808433860C0202C
:1018A0004002A16801433160E1680843286033E0E9
:1018B0002068802149020143216080200002616884
:1018C00001433960A1683160E1680843286023E082
:1018D00020688021490201432160C02040026168E4
:1018E00001433960A16801433160E1680843286021
:1018F00012E020688021490201432160C02040029B
:10190000616801433960A168802212020A43326093
:10191000E16808432860FFE705B0F0BDFFFFFBFF6B
:10192000FFFFFEFFF8B50821AC480160AC4F202056
:101930003860AC48012404601022AB490A600421DD
:101940000160022139608021090101608021C90004
:101950003960A64A13785B1C13701378082B01DBDF
:10196000002313701278002A17D0022A00D19FE2B8
:1019700000D24DE1042A01D100F01FFD00D2CAE3DC
:10198000062A01D100F096FF01D200F04AFE072A94
:1019900001D101F0C4F801F007FAB64A13689B00C0
:1019A00004D580256D018D4B1D6003E080256D0100
:1019B0008D4B1D601368DB0004D580252D01874BFE
:1019C0001D6003E080252D01874B1D6013681B01FE
:1019D00002D5824B196001E0834B196011684901FF
:1019E00003D58023B5490B6002E08023B4490B6026
:1019F0001168890103D54023B0490B6002E0402300
:101A0000AF490B601168C90104D580239B0073495D
:101A10000B6003E080239B0073490B60116809028F
:101A200004D580235B006D490B6003E080235B00DD
:101A30006D490B601168490203D5802109020160DC
:101A400002E08021090239601168890203D58021F2
:101A5000C901016002E08021C90139601168C90231
:101A600003D580218901016002E08021890139606C
:101A70001168090303D580214901016002E080213A
:101A8000490139601168490305D5C14D2988802372
:101A90000B432B8004E0BE4D2988BE4B0B402B80AE
:101AA0001168890305D5BA4D298840230B432B8043
:101AB00004E0B74D2988B84B0B402B801168C9034F
:101AC00005D5B34D298820230B432B8004E0B04D6E
:101AD0002988B24B0B402B808021090213680B40F0
:101AE000002B05D0AA4E338810251D43358004E015
:101AF000A74E3388AA4D1D40358013685B0405D579
:101B0000A34E338808251D43358004E0A04E33885A
:101B1000BF4D1D40358013689B0405D59C4E33880E
:101B200004251D43358004E0994E3388B94D1D408E
:101B300035801368DB0405D5954E338802251D4397
:101B4000358004E0924E3388B34D1D4035801368D4
:101B50001B0505D58E4E338825001D43358004E0D6
:101B60008B4E3388AD4D1D40358013785B0602D512
:101B70001023036001E010233B60202315681D4003
:101B8000002D02D00825056001E00820386010789B
:101B9000C00603D50825BA48056002E00825B94803
:101BA0000560082610683040002803D00425B4489A
:101BB000056002E00425B34805601078400703D5AE
:101BC0000225AF48056002E00220AE4D2860107883
:101BD00080070DD5AA4804600CE000BF2800005023
:101BE000180400502804005018000050770200200C
:101BF000A448046010680440002C02D0A248016090
:101C000001E0A2480160A14806603B6001F0CCF809
:101C1000184A53689B0004D580235B019A4D2B60C2
:101C200003E080235B01994D2B605368DB0004D5F2
:101C300080231B01944D2B6003E080231B01934DF7
:101C40002B6053681B0102D58F4B196001E08F4B4D
:101C500019605168490103D5802318490B6002E0DF
:101C6000802317490B605168890105D5402313492A
:101C70000B6004E0DC010020402311490B60516837
:101C8000C90104D580239B007F490B6003E08021BC
:101C900089007E4B19605168090204D580235B00DE
:101CA00079490B6003E080235B0078490B60516841
:101CB000490207D580210902016006E0280800508A
:101CC000180800508021090239605168890203D543
:101CD0008021C901016002E08021C9013960516899
:101CE000C90203D580218901016002E080218901B8
:101CF00039605168090303D580214901016002E080
:101D00008021490139605168490305D5204D298852
:101D100080230B432B8004E01D4D29881D4B0B4075
:101D20002B805168890305D5194D298840230B4321
:101D30002B8004E0164D2988174B0B402B805168EF
:101D4000C90305D5124D298820230B432B8004E0BD
:101D50000F4D2988114B0B402B808026360251688D
:101D60003140002905D00A4D298810230B432B80D0
:101D700004E007490B880A4D1D400D805168490455
:101D800010D5034D298808230B432B800FE000BF9B
:101D9000640200207FFF0000BFFF0000DFFF0000A3
:101DA000EFFF0000884D2988194B0B402B805168AC
:101DB000890405D5844D298804230B432B8004E036
:101DC000814D2988134B0B402B805168C90405D5E0
:101DD0007D4D298802230B432B8004E07A4D29880E
:101DE0000D4B0B402B805168090505D5764D298890
:101DF00023000B432B8004E0734D2988074B0B40D5
:101E00002B80117949060BD5102101600AE000BF33
:101E1000F7FF0000FBFF0000FDFF0000FEFF0000D9
:101E2000102139601179890602D50821016001E08D
:101E300008203860102051680140002903D0082193
:101E40000F4B196002E00821AA4B196011790907AC
:101E500003D504210A4B196002E00421A54B196047
:101E60001179490703D50221054B196002E00221CF
:101E7000A04B1960117989070AD501490C6009E066
:101E8000280C0050180C005028000050180000507A
:101E900098490C6051682140002902D0B7490E6072
:101EA00001E0B7490E603C60B549086000F07CFF76
:101EB000B44A93689B0004D580235B01AF4D2B602F
:101EC00003E080235B01AE4D2B609368DB0004D5FB
:101ED00080252D01A94B1D6003E080231B01A84D27
:101EE0002B6093681B0102D5A44B196001E0A44B41
:101EF00019609168490103D58023B4490B6002E061
:101F00008023B3490B609168890103D54023AF4911
:101F10000B6002E04023AE490B609168C90104D513
:101F200080239B0095490B6003E080239B0094492C
:101F30000B609168090204D580235B008F490B6018
:101F400003E080235B008E490B609168490203D552
:101F500080210902016002E0802109023960916854
:101F6000890203D58021C901016002E08021C901F5
:101F700039609168C90203D580218901016002E0BE
:101F80008021890139609168090303D580214901C5
:101F9000016002E08021490139609168490305D55B
:101FA000094D298880230B432B8004E0064D2988A6
:101FB000B94B0B402B809168890307D5024D2988C6
:101FC00040230B432B8006E064020020B34D298898
:101FD000B34B0B402B809168C90305D5AF4D2988C1
:101FE00020230B432B8004E0AC4D2988AD4B0B40E4
:101FF0002B808026360291683140002905D0A74DFC
:10200000298810230B432B8004E0A4490B88A64D9C
:102010001D400D809168490405D5A04D29880823ED
:102020000B432B8004E09D4D2988BD4B0B402B803A
:102030009168890405D5994D298804230B432B8089
:1020400004E0964D2988B74B0B402B809168C9045A
:1020500005D5924D298802230B432B8004E08F4D38
:102060002988B14B0B402B809168090505D58B4D14
:10207000298823000B432B8004E0884D2988AB4B33
:102080000B402B80117A490602D51021016001E036
:1020900010213960117A890602D50821016001E01A
:1020A00008203860107AC00603D50821B7480160BF
:1020B00002E00821B6480160107A000703D5042128
:1020C000B248016002E00421B14801600420916837
:1020D0000140002903D00221AC4B196002E002212B
:1020E000AB4B1960022193680B40002B04D0A74B27
:1020F0001C6003E0180C0050A54B1C609268144053
:10210000002C02D01D4A166001E01D4A166038609E
:10211000396000F049FE1B4AD3689B0004D5802338
:102120005B01164D2B6003E080235B01144D2B6097
:10213000D368DB0004D580231B01104D2B6003E026
:1021400080231B010E4D2B60D3681B0102D50B4B66
:10215000196001E00A4B1960D3685B0103D5802345
:102160001A4D2B6002E08023194D2B60D3689B0130
:102170000AD54025154B1D6009E000BF280000501E
:1021800018000050DC0100204023114D2B60D36863
:10219000DB0104D580239B00B24D2B6003E080233C
:1021A0009B00B14D2B60D3681B0204D580235B00DC
:1021B000AC4D2B6003E080235B00AB4D2B60D368FC
:1021C0005B0207D580231B02036006E0280800504D
:1021D0001808005080231B023B60D3689B0203D584
:1021E0008023DB01036002E08023DB013B60D368D6
:1021F000DB0203D580239B01036002E080239B0167
:102200003B60D3681B0303D580235B01036002E0BE
:1022100080235B013B60D3685B0305D51F4E338889
:1022200080251D43358004E01C4E33881A4D1D4027
:102230003580D3689B0305D5184E338840251D4350
:10224000358004E0154E3388154D1D403580D36828
:10225000DB0305D5114E338820251D43358004E06E
:102260000E4E33880F4D1D403580D3681B0405D5B5
:102270000A4E338810251D43358004E0074E33880D
:10228000094D1D403580D3685B040FD5034E33885C
:1022900008251D4335800EE07FFF0000640200200A
:1022A000BFFF0000DFFF0000EFFF0000BC4E3388DF
:1022B0001B4D1D403580D3689B0405D5B84E33882F
:1022C00004251D43358004E0B54E3388154D1D406F
:1022D0003580D368DB0405D5B14E338802251D4314
:1022E000358004E0AE4E33880F4D1D40358080238D
:1022F0001B01D5681D40002D06D0A94D2E88250054
:102300003543A74E358005E0A54D2D88A54E2E40BE
:10231000A34D2E80157B6D060AD51025056009E0BA
:10232000F7FF0000FBFF0000FDFF0000FEFF0000C4
:1023300010253D60157BAD0602D50825056001E03E
:1023400008203860107BC00603D508200F4D286098
:1023500002E008250E480560107B000703D5042520
:102360000A48056002E0042509480560107B400723
:1023700003D502250548056002E0022504480560F2
:10238000107B800706D50148046005E0280C00504A
:10239000180C0050BC480460D0680440002C04D0E5
:1023A000802212022F48026003E0802000022E4AA1
:1023B00010603B60396000F0F7FCB44A13689B0082
:1023C00004D580256D01284B1D6003E080256D013B
:1023D000244B1D601368DB0004D580252D01224BA2
:1023E0001D6003E080252D011E4B1D6013681B013D
:1023F00002D51D4B196001E01A4B196011684901A3
:1024000003D58023B3490B6002E08023B2490B60FF
:102410001168890103D54023AE490B6002E04023D7
:10242000AD490B601168C90104D580239B000E499A
:102430000B6003E080239B000A490B6011680902CE
:1024400004D580235B0008490B6003E080235B0018
:1024500004490B601168490208D5802109023960DE
:1024600007E000BF2800005018000050802109023A
:1024700001601168890203D58021C901396002E039
:102480008021C90101601168C90203D58021890139
:10249000396002E08021890101601168090303D5D8
:1024A00080214901396002E0802149010160116801
:1024B000490305D53A490D88BB4B2B400B8004E0FE
:1024C00037490D8880232B430B801168890305D57C
:1024D00033490D88B54B2B400B8004E030490D8803
:1024E00040232B430B801168C90305D52C4D298847
:1024F000BD4B0B402B8004E029490D8820232B4342
:102500000B808026360211683140002905D0244D09
:102510002988B64B0B402B8004E0214D29881023DD
:102520000B432B801168490405D51D4D2988BD4BEF
:102530000B402B8004E01A4D298808230B432B8085
:102540001168890405D5164D2988B74B0B402B809F
:1025500004E0134D298804230B432B801168C90420
:1025600005D50F4D2988B14B0B402B8004E00C4D55
:10257000298802230B432B801168090505D5084DD6
:102580002988084B0B402B8004E005490B88250067
:102590001D430D801178490606D51021396005E0EC
:1025A00064020020FEFF000010210160202113685A
:1025B0000B40002B02D008233B6001E0082303609E
:1025C0001378DB0603D508252F4B1D6002E0082594
:1025D000B94B1D6013781B0703D504252A4B1D60DA
:1025E00002E00425B44B1D6013785B0703D5022578
:1025F000254B1D6002E00225AF4B1D6013789B0741
:1026000002D5214B1C6001E0AB4B1C6012681440EA
:10261000002C02D0864A166001E0864A16600160EE
:10262000C2E31A4A53689B0004D580256D01804B94
:102630001D6003E080256D017E4B1D605368DB004B
:1026400004D580252D017A4B1D6003E080252D01E6
:10265000784B1D6053681B0102D5754B196001E072
:10266000744B19605168490103D5802319490B60E7
:1026700002E0802318490B605168890108D5402386
:1026800014490B6007E000BF180C0050DC0100206B
:10269000402311490B605168C90104D580239B0078
:1026A00063490B6003E080239B0062490B60516823
:1026B000090204D580235B005D490B6003E08023A1
:1026C0005B005C490B605168490207D58021090213
:1026D000396006E0180800502808005080210902DF
:1026E00001605168890203D58021C901396002E087
:1026F0008021C90101605168C90203D58021890187
:10270000396002E08021890101605168090303D525
:1027100080214901396002E080214901016051684E
:10272000490305D5BA4D29881F4B0B402B8004E087
:10273000B74D298880230B432B805168890305D529
:10274000B34D2988194B0B402B8004E0B04D2988EC
:1027500040230B432B805168C90305D5AC4D298814
:10276000214B0B402B8004E0A94D298820230B43EB
:102770002B808026360251683140002905D0A44DB7
:1027800029881A4B0B402B8004E0A1490B881025A7
:102790001D430D80516849040AD59D4D2988214B60
:1027A0000B402B8009E000BF7FFF0000BFFF00004F
:1027B000974D298808230B432B805168890405D540
:1027C000934D2988184B0B402B8004E0904D2988AD
:1027D00004230B432B805168C90409D58C4D2988EB
:1027E000124B0B402B8008E0DFFF0000EFFF0000E2
:1027F000874D298802230B432B805168090505D595
:10280000834D2988A54B0B402B8004E0804D2988FF
:1028100023000B432B80117949060DD51021396017
:102820000CE000BFF7FF0000FBFF0000FDFF000011
:10283000180000502800005010210160117989060D
:1028400002D50820386001E008210160102051689D
:102850000140002903D00823A9490B6002E00823A6
:1028600015490B601179090703D50423A4490B60AE
:1028700002E0042310490B601179490703D50223B4
:102880009F490B6002E002230B490B601179890715
:1028900002D59B490C6001E007490C6051680C406F
:1028A000002C02D0B7490E6001E0B7490E60B6496E
:1028B000086079E2B54A01E0280C005093689B005B
:1028C00004D580256D01AF4B1D6003E080256D01AF
:1028D000AD4B1D609368DB0004D580252D01A94B0D
:1028E0001D6003E080252D01A74B1D6093681B012F
:1028F00002D5A44B196001E0A34B1960916849010E
:1029000003D58023B3490B6002E08023B2490B60FA
:102910009168890103D54023AE490B6002E0402352
:10292000AD490B609168C90104D580239B0095498E
:102930000B6003E080239B0093490B6091680902C0
:1029400004D580235B008F490B6003E080235B008C
:102950008D490B609168490203D5802109023960D5
:1029600002E08021090201609168890203D580217B
:10297000C901396002E08021C90101609168C90282
:1029800003D580218901396002E08021890101603D
:102990009168090303D580214901396002E0802153
:1029A000490101609168490305D519490D88BC4B5F
:1029B0002B400B8004E016490D8880232B430B80AD
:1029C0009168890305D512490D88B64B2B400B80C1
:1029D00004E00F490D8840232B430B809168C90305
:1029E00005D50B490D88BE4B2B400B8004E00849F0
:1029F0000D8820232B430B808026360291683140BE
:102A0000002907D0024D2988B64B0B402B8006E0E9
:102A100064020020BB490B8810251D430D8091687E
:102A2000490405D5B74D2988B74B0B402B8004E0EE
:102A3000B44D298808230B432B809168890405D560
:102A4000B04D2988B14B0B402B8004E0AD4D298857
:102A500004230B432B809168C90405D5A94D29880F
:102A6000AB4B0B402B8004E0A64D298802230B437F
:102A70002B809168090505D5A24D2988074B0B408D
:102A80002B8004E09F4D298823000B432B80117A73
:102A9000490605D51021396004E000BFFEFF0000A3
:102AA00010210160117A890602D50821396001E000
:102AB00008210160117AC90603D5082310490B606B
:102AC00002E00823BB490B60117A090703D50423F0
:102AD0000B490B6002E00423B6490B60117A4907E9
:102AE00003D5022306490B6002E00223B1490B60C3
:102AF000022193680B40002B04D0014B1C6003E0C3
:102B0000180C0050AB4B1C6092681440002C02D093
:102B10001C4A166001E01C4A1660016044E11B4E2D
:102B2000F268920004D580235B01164A136003E02B
:102B300080235B01144A1360F268D20004D580231D
:102B40001B01104A136003E080231B010E4A13602F
:102B5000F268120102D50B4A116001E00A4A1160C5
:102B6000F268520103D580231A4A136002E08023E1
:102B7000194A1360F26892010AD54023154A13607E
:102B800009E000BF1800005028000050DC010020C0
:102B90004023114A1360F268D20104D580239B00C0
:102BA000854A136003E080239B00844A1360F26827
:102BB000120204D580235B007F4A136003E0802368
:102BC0005B007E4A1360F268520207D5802212022F
:102BD0003A6006E0180800502808005080221202CF
:102BE0000260F268920203D58022D2013A6002E0CC
:102BF0008022D2010260F268D20203D580229201C3
:102C00003A6002E0802292010260F268120303D56A
:102C1000802252013A6002E0802252010260F26892
:102C2000520305D5374D2A881D4B13402B8004E0F5
:102C3000344A138880251D431580F268920305D518
:102C4000304D2A88174B13402B8004E02D4D2A88E5
:102C5000402313432B80F268D20305D5294D2A88DF
:102C60001F4B13402B8004E0264D2A88202313435A
:102C70002B80F268120405D5224D2A88194B134087
:102C80002B8004E01F4D2A88102313432B80F26809
:102C9000520409D51B4D2A881B4B13402B8008E09A
:102CA0007FFF0000BFFF0000164D2A880823134352
:102CB0002B80F268920405D5124D2A88134B1340DD
:102CC0002B8004E00F4D2A88042313432B80F268E5
:102CD000D20409D50B4D2A880D4B13402B8008E0F8
:102CE000DFFF0000EFFF0000064D2A880223134398
:102CF0002B80F26812050DD5024D2A88B54B134082
:102D00002B800CE064020020F7FF0000FBFF0000B6
:102D1000FDFF0000B04D2A88230013432B80327B37
:102D2000520602D510223A6001E010220260327B86
:102D3000920602D508223A6001E008220260327B46
:102D4000D20603D50823A54A136002E00823194AD6
:102D50001360327B120703D50423A04A136002E0FC
:102D60000423144A1360327B520703D502239B4A83
:102D7000136002E002230F4A1360327B920702D5F0
:102D8000964A146001E00B4A1460F2681440002C6B
:102D900004D080221202084B1A6003E08022120243
:102DA000064B1A600160FFE78B48008800F0D9F8F5
:102DB000F1BD0000280C0050180000502800005001
:102DC000F0B50100C9B20A2970DBA84F3A68A849DA
:102DD00011403960391D7B68A64A1A400A603A00E2
:102DE0000832CB4CBB68234013603B000C33FD68BA
:102DF0002C401C603D68802464012C433C6004002E
:102E0000E4B21F2C05DAF968802292010A431A60A5
:102E100066E00400E4B2292C0CDA0400E4B21F2CB2
:102E200008DB80218901BC680C431460FA681143F7
:102E3000196055E00400E4B2332C0FDA0400E4B268
:102E4000292C0BDB8024A4017D6825430D60B96823
:102E500021431160F9680C431C6041E00400E4B2B6
:102E6000472C0EDA8024A4013D6825433D607D682F
:102E700025430D60B96821431160F9680C431C605B
:102E80002EE00400E4B2472C2ADB8024A4013D6834
:102E900025433D607D68C026B6012E430E60B968AB
:102EA00021431160F9680C431C6019E06F490B68FD
:102EB0006F4A1A400A604B686E4A1A404A60944A48
:102EC0008B6813408B60CB681A40CA600B68802205
:102ED00052051A430A600A6880235B0153400B6065
:102EE000F0BD70B561490B68052293430B600A1D64
:102EF0004C6801239C4314600B0008338D68012447
:102F0000A5431D600C000C34CE680125AE4326603D
:102F10008E68022535431D600500EDB2012D07D0F6
:102F20001ED3032D0ED008D3052D15D00FD317E0D7
:102F3000CA6801211143216012E08A68012111430E
:102F400019600DE04B6801211943116008E00B681E
:102F500001221A430A6003E00B6804221A430A6044
:102F600070BD70B580210A0000231C002500EDB261
:102F7000082D1EDA0500ADB21540002D03D0202625
:102F8000644D2E6002E02026634D2E60624D296064
:102F90001D00642D02DA00BF6D1CFAE75D4D29604B
:102FA0001D00642D02DA00BF6D1CFAE75208641C94
:102FB000DCE74021584D29601D00642D02DA00BF76
:102FC0006D1CFAE7534D2960642B02DA00BF5B1CCD
:102FD000FAE770BDFEFF000064020020180C0050EC
:102FE00070B4224802684D4911400160011D4C4CEB
:102FF000426822400A60020008328368234013605E
:1030000003000C33C5682C401C60464C0568254005
:103010000560C44D46682E400E6086682E401660DE
:10302000C66835401D607025ED4306682E40066079
:10303000466835400D607825ED4386682E40166061
:10304000C66835401D6005682C40046045688024D2
:1030500064052C430C60C021490584680C4314604E
:10306000C0680143196070BC70470000DC0100209B
:10307000FFDFFFEFFFCFFFFFF8B5AB4F3968274801
:10308000084038603A1D26487968014011603B00CD
:103090000833B968014019603C000C34F9680840F5
:1030A0002060204D3868284038609E48796801408B
:1030B0001160B96801401960F9680840206070200B
:1030C000C043396801403960796808401060782051
:1030D000C043B96801401960F96808402060934E08
:1030E0007068002100F016FA0ED1386805403D6086
:1030F000C0204005796801431160B9680143196037
:10310000F9680843206002E07068FDF72FFDF1BD0B
:10311000FFDFFFFF2800005018000050FFFFFFDF17
:10312000FBFFFFDFFFFFFFF710B58021090400F070
:103130001BF900D9F5E07E4900F016F904D87A4B66
:10314000196840220A431A607A4900F00DF907D83D
:103150004021754A13680B4313605368194351604B
:10316000754900F001F90AD840216F4A13680B43F2
:10317000136053680B4353609368194391606F4920
:1031800000F0F2F80DD84021674A13680B43136032
:1031900053680B43536093680B439360D3681943A0
:1031A000D160674900F0E0F80ED85F490B686022F3
:1031B0001A430A6040224B6813434B608B681343E9
:1031C0008B60CB681A43CA605E4900F0CDF80ED818
:1031D000602255490B6813430B604B681A434A60E1
:1031E00040228B6813438B60CB681A43CA605649F0
:1031F00000F0BAF80ED860224B490B6813430B60FD
:103200004B6813434B608B681A438A60CB6840223B
:103210001A43CA604D4900F0A7F80DD86021424A10
:1032200013680B43136053680B43536093680B435D
:103230009360D3681943D160454900F095F80ED8E2
:10324000602239490B6813430B604B6813434B6092
:103250008B681A438A60CB6870221A43CA603D4962
:1032600000F082F80ED860222F490B6813430B60E0
:103270004B681A434A6070228B6813438B60CB689B
:103280001A43CA60344900F06FF80ED86021264A0C
:1032900013680B431360702354681C435460946894
:1032A00021439160D1680B43D3602C4900F05CF856
:1032B0000FD81D490B6850221A430A604B686022E0
:1032C0001A434A6070228B6813438B60CB681A43A1
:1032D000CA60234900F048F810D813490A685023FF
:1032E00013430B604B6860221A434A608B68782254
:1032F0001A438A60CB6870221A43CA60194900F0E9
:1033000033F80ED8702208490B6813430B604B68E2
:103310001A434A6078228B6813438B60CB681A4348
:10332000CA6010BDFFFFFFE7DC010020180100208C
:103330000100A04001006041010070410100A04176
:103340000100E8410100F04101002042010030424B
:10335000010034420100484201006C420100704209
:10336000010094420100B2420CB40122120603187B
:10337000DA4207D84B18DA4204D802000A439218FE
:1033800002D281420CBC7047FCD088420CBC704712
:1033900030B405004D400122D20715404B180418E7
:1033A000240E2ED01B0E32D0FF2C34D0FF2B3AD05F
:1033B000E4180002090210431143000A090A944666
:1033C000C2B24A43000AC3B24B43000A4843110A3F
:1033D0005B181A43D2B2190A091801D44918641E9D
:1033E000080A7F3C23DBFE2C08DAE40509061143BA
:1033F000634699416041284330BC7047FF20C005B7
:10340000F9E728001B0EFF2BF6D1D043F4E7280084
:10341000FF2CF1D1F9E74002F7D1FF2B01D149028E
:10342000F3D1E005E7E7D8054902E4D0EDE7430230
:103430000020641CDFD15B129B1CDCD9D805DAE7C5
:103440000122D2070118090E7F3910D449421F31D9
:103450000FD4001805D2C0011043C84000D5D04396
:103460007047C0011043C84005D440427047002057
:1034700070470042F3D51000704703685A1C026081
:10348000197070470CB418B583B004000A0006A880
:10349000029001940020009002AB01A908487844F2
:1034A0001E3000F04BF8002201990A70002801D468
:1034B0000198001B04B0019910BC03B0084700BF7D
:1034C000BBFFFFFF0CB4012212060318DA4207D833
:1034D0004B18DA4204D802000A43921802D28842FA
:1034E0000CBC7047FCD08142FAE72E0000180ED2C7
:1034F000010E7F390BD449421F3105D4C00101228E
:10350000D2071043C84070470020401E704700207B
:103510007047FEE7944602000A43921808D088429A
:1035200006D1012212060018D042084600D8804277
:10353000624670470100202008437047FDB5B2B0D5
:103540003A98049102AA3B21505400200D9027A8DC
:10355000401C31900DE00498329A90470490002866
:1035600001D100F0D2FE0D98401C0D903398401C04
:1035700033903398017800290FD02529EBD1002012
:103580000790089009900A900B900C900225012159
:10359000149108211291339C05E00D9800F0B7FEBC
:1035A000010014980843641C21782029F8D02329AD
:1035B0000BD02B2904D02D2904D0302908D00AE0C3
:1035C0002843F0E701000420ECE701000820E9E7C8
:1035D00001001020E6E72A290FD134990A68116802
:1035E000121D349B1A600F91002904D54A420F9294
:1035F000010004200843641C12E000210F9164497B
:1036000009E00F9E8E4205DAB3009B195B009A1801
:10361000303A0F92641C22781300303B0A2BF0D30F
:1036200021782E2903D00021C9430E9127E0641C84
:1036300021782A2908D134990A681168131D349A0F
:1036400013600E91641C1AE02D2902D12D23641CF5
:1036500000E0002300210E910CE0002B09D10E990F
:103660004B4EB14205DA8E00711849008918303985
:103670000E91641C2278110030390A29EDD302A979
:1036800008872678310040487844FF30C01E00F09B
:1036900015FF002801D0641C00E0002602A83A2192
:1036A000465402A9682E04D1207868280AD16220E5
:1036B00005E06C2E06D120786C2803D171203A22C7
:1036C0008854641C18A80690217868460170601C14
:1036D0003390684604782100253933D01C3900D155
:1036E000CCE1091F022900D8C8E1133901D100F04B
:1036F00027FD093900D1C1E1891E01D100F0CBFDC0
:10370000491E01D100F078FD491E022900D8B5E11B
:10371000091F01D100F070FD491F00D108E1491EC9
:1037200001D100F00DFD491E00D1F0E0C91E0ED000
:10373000891E01D100F004FDC91E01D100F000FD79
:1037400000F0B4FD14980790252118A87CE1349866
:1037500000680468011D349801600594002C00D0B5
:10376000C1E002A93B20085C002800D1B5E000249C
:10377000E44306487844143000F0AAFE201A01D031
:1037800000F0C3FD00F0A0FD984B0000CC4B000002
:10379000CBCCCC0C01236A4602A9280000F072FEB3
:1037A000002801D000F0B1FD641EF3D13295079CD2
:1037B00018AD002C0FD0329E29780498B0470490A1
:1037C000002801D100F0A1FD0D98401C0D906D1C4A
:1037D000641EF1D132963021684601700A9C002C9B
:1037E0000DDD329D01236A4602A9280000F04AFE41
:1037F000002801D000F089FD641EF3D13295059DAB
:10380000089C002C0FD0329E29780498B047049071
:10381000002801D100F079FD0D98401C0D906D1C21
:10382000641EF1D132963027684607700B9C002C3D
:103830000DDD329D01236A4602A9280000F022FE18
:10384000002801D000F061FD641EF3D13295059986
:1038500008980D18099C002C0FD0329E29780498E6
:10386000B0470490002801D100F04FFD0D98401C96
:103870000D906D1C641EF1D13296684607700C9C49
:10388000002C0DDD329D01236A4602A9280000F0BC
:10389000F9FD002801D000F038FD641EF3D1329507
:1038A00002A93820085C400700D462E6202168465F
:1038B00001700198002800DC5BE6019C329D012329
:1038C0006A4602A9280000F0DDFD002801D000F0C2
:1038D0001CFD641EF3D132954BE61B4878446830DA
:1038E000059000F0F1FC0E9D002D03D5200000F0A6
:1038F00013FE09E02A000021200000F015FE002838
:1039000001D0001B00E02800089000F0DDFC349896
:1039100000680268011D349801600020C043002146
:10392000104002AA03C218A80590782100F0AFFC4D
:1039300002A83B21415C002908D00024E4434B4805
:103940007844FF30293017E72C4A00003A21405CC8
:1039500062286AD0682819D06A2845D06C2806D019
:1039600071284FD0742831D07A2821D06FE0349854
:10397000016808680A1D34990A6000287AD1002479
:10398000E4433B487844FF301738F5E63498016843
:1039900008680A1D34990A60002805D10024E44310
:1039A00033487844CA30E7E60D99018000F08CFC7A
:1039B0003498016808680A1D34990A60002859D1B2
:1039C0000024E4432A487844A630D5E634980168B8
:1039D00008680A1D34990A6000284BD10024E4438A
:1039E000234878448A30C7E6349800680268011D8D
:1039F00034980160002A13D10024E4431C48784421
:103A00006E30B9E6349800680268011D3498016090
:103A1000002A05D10024E443154878445230ABE62F
:103A20000D98C11703C200F04FFC34980168086874
:103A30000A1D34990A60002805D10024E4430C488B
:103A400078442C3098E60D99017000F03DFC3498D4
:103A5000016808680A1D34990A6000280AD1002408
:103A6000E44303487844083086E600BFBC480000C1
:103A7000D04800000D99016000F026FC34980068E1
:103A8000C21D072082433498026003CA349B1A6027
:103A900002AA03C22022C80F02D007982D2209E0F3
:103AA00002A8018F294202D007982B2202E0C80702
:103AB00004D5079818A90A54401C079018A907981C
:103AC00008181390059027AD02A803C816AA03C2D0
:103AD00068460178202008436946887068468078E7
:103AE00061280BD00E98002801D5062005E005D1ED
:103AF00068468078672801D114980E9002A803C800
:103B00000B0002185B415A15DB17BAA6C0CEBB42A8
:103B100012D1B24210D10903020D11430003002952
:103B200001D1002808D003200890613C1A2C19D339
:103B30001B4979446A3110E002A803C8080041001B
:103B40004A15B24212D1000310D103200890613C03
:103B50001A2C21D3134979444A310322139800F0D7
:103B600009FDB1E3104979443E31F6E701AA02A804
:103B700003C800F00CFD02AA03C2684680786128E1
:103B80001BD1059830210170811C05916946097887
:103B900061290DD178210CE0044979440E31DCE72C
:103BA000DC470000E0470000D0470000D447000099
:103BB000582141700798801C079002A803C832461C
:103BC000530802400B4004D1002A02D100240026F1
:103BD00055E168468078612800D095E00E9800286D
:103BE00001D5212000E0401C1390139F7F1C16A8D4
:103BF00003C80022002300F0DFFC02A830C802D274
:103C00008020000645400198001F019027A80270FF
:103C1000461C002F31DD20002900002280235B0399
:103C200000F0E3FC29D81C2200F0F8FC04000D0091
:103C300000F02CFD1590FF1F002F09DD00F060FD46
:103C400002000B002000290000F0C7FD04000D0059
:103C5000F01D0722159900290ADD521E08D4401EC6
:103C60000B071B0F03700911F5E7401E00210170BF
:103C7000521EFAD5C61D002FCDDC27A83199711A26
:103C800027AA551C139A0C00914200DD1400002C49
:103C900033D48C4205DA411C095D082901DB0F2170
:103CA00000E00021220027AB9B1801E0641E5B1E90
:103CB000521E1E788E42F9D00F2904D1411C895C16
:103CC000491C401C8154002A04D527AD641C01986E
:103CD000001D0190611E10D46B18684600781E7894
:103CE0003036F2B23A2A01DB8619C6361E70491EFA
:103CF0005B1E0029F3D5694608700E98002800D491
:103D0000BCE0601E0E90B9E016A830C86D006D08CA
:103D1000019868494843684900F0ECFD019007208C
:103D20000199401A002805DD02002000290000F05A
:103D300083FB0AE042420020604900F07DFB020064
:103D40000B002000290000F02FFE6A469278662AB8
:103D500002D1019B0A3300E006230E9AD218142ADE
:103D600000DD142227AB30241C705C1C02E016A876
:103D700003C8139A002A41DD16AB03C3139216A899
:103D800003C800F095FC1590064608340425300061
:103D90000A2100F0B2FD0F0030000A2100F0ADFD55
:103DA00006003037601E077030000A2100F0A5FDC4
:103DB0000F0030000A2100F0A0FD0600A41E3037DD
:103DC00027706D1EE3D1083413980838139000282B
:103DD000CDDD159800F084FC02000B0016A803C886
:103DE00000F0FBFC0022364B00F03FFE16AA03C297
:103DF000C5E700BFFFFFFFFFFFFFFFFF3198201A5D
:103E000027A94D1C04E0401E0199491E01916D1C1B
:103E100029783029F7D069468978662902D1019A34
:103E2000521C06E069468978652901D1149A00E0A0
:103E300000220E998C18A04200DA441E002C1DD4DA
:103E4000844204DA285D342801DD392000E0302086
:103E500021006A1E531801E0641E5B1E491E1E7875
:103E60008642F9D0392802D1685C401C6854002988
:103E700004D51500641C0198401C0190019E139507
:103E800068460178417000F0B3FE406A01786846E8
:103E900001700E9D20B2002804DC149C0448784474
:103EA0000E3013906846807866280BD1761C24E08B
:103EB000D844000097750000A08601000000F03F84
:103EC00084D7974168468078672847D131B203206C
:103ED000C043814248DB30B2A84245DA761C02A8D2
:103EE000018F1298C9B2014203D120B2A84200DC6E
:103EF000050030B22D1A00D5002537B2002F00DDA5
:103F0000B9E00898411C08913021059A1154002D00
:103F100005DC02A8018F1298C9B2014206D00898A8
:103F2000411C089169460978059A115478428542E6
:103F300000DA6E4236B270420B90AD1920B2854263
:103F400000DA2C0024B2099422001399059B0898EA
:103F5000181800F00FFB281B0C90D9E06846407839
:103F6000612816D1702119E020B2A84206DA02A910
:103F70000A8F1299D2B20A4200D105006D1E00D5F7
:103F8000002568464078672801D1652106E0452173
:103F900004E068464078412802D1502168464170CB
:103FA0000898411C089113990978059A115413989F
:103FB000411C002D05DC02A8028F1298D2B20242E9
:103FC00019D00898421C08926A461278059B1A5428
:103FD000002D10DD641E20B2854200DA2C0022B2D2
:103FE000059B0898181800F0C5FA24B20898001923
:103FF0000890281B0B900599089809186846407886
:10400000087030B2002803D42B2048708F1C03E0C6
:104010002D224A708F1C4642002412AD300008E069
:104020000A2100F067FC15AA03C229701598641CC8
:104030006D1C00B20028F3DC012C08DC68464078D7
:1040400020210143652902D1302038707F1C002CCB
:1040500009D1302038707F1C07E0641E12A8005D73
:10406000303038707F1C002CF7DC05990898081850
:10407000381A09904CE020B231B288421DDA22B2DF
:104080001399059B0898181800F074FA24B2089840
:1040900000190890391B0B91002D05DC02A90A8F2D
:1040A0001299D2B20A4206D069460978059A11548B
:1040B0000998401C09900C952AE032B21399059892
:1040C000089BC01800F056FA0898C0190890A41B65
:1040D000002D05DC02A90A8F1299D2B20A4205D03E
:1040E000411C089169460A7805990A5420B2854214
:1040F00000DA2C0022B21398C119059B08981818F1
:1041000000F038FA24B2089800190890281B0B9088
:1041100002A83821405C14210140102900D0D3E0CE
:104120000798089941180B980918099808180C99CC
:1041300041180F98814200DBC6E0401A0A90C3E0A4
:1041400002AA3A20105C622808D068280ED06A289B
:1041500014D06C282BD071281ED028E03498016828
:1041600008680B1D34990B60C0B226E034980168D2
:104170000868091D349B196080B21EE034980068FD
:10418000C31D072083433498036003CB083B1C0006
:104190000834349B1C6011E034980068C31D07206C
:1041A00083433498036003CB349C236006E0349847
:1041B00001680868091D349B1960002102AB03C324
:1041C000118F1298C9B201425BD002A803C800291E
:1041D00001D1002855D06846007820210143782974
:1041E0004FD1079918A830224254491C4A1C079203
:1041F0006A461278425444E002AA3A20105C6228CF
:1042000008D068280ED06A2814D06C281DD07128D8
:1042100010D01AE03498016808680B1D34990B60BF
:1042200040B218E03498016808680B1D34990B609F
:1042300000B210E034980068C31D0720834334980F
:10424000036003CB349C236006E03498016808685F
:104250000B1D34990B60C11702AB03C3002902DAAE
:1042600007982D2209E0118F294202D007982B22AE
:1042700003E0C80705D50798202218A90A54401C56
:10428000079018A80799401805906846017802A879
:1042900000F03FF818E01498079034980168086817
:1042A0000A1D34990A6018A908700DE01498079047
:1042B000252118A8017068460078002804D00795C9
:1042C0006846007818A948700F980799411A0A980B
:1042D000081A0899401A0B99401A0999401A0C9922
:1042E000401A019002A83821405C400701D5FFF731
:1042F0005EFA2020694608700198002801DCFFF76B
:1043000056FA019C329DFFF745FA0020C04335B0B4
:10431000F0BDF2B586B0040025696F2901D10827E8
:1043200007E00846FFF706F9782801D00A2700E0E1
:1043300010273C2603CC083C04AA03C26A46127E1E
:10434000642A03D06A46127E692A09D1002907DA55
:1043500004A803C800220023121A8B4104A80CC031
:1043600004A803C800290ED100280CD1206B002816
:1043700009D1082F3ED13820205C00073AD53B26D2
:104380003021A95536E00294009504A830C8761E65
:104390000196200029003A00002300F02FFC303263
:1043A000D0B23A280DDA00988255200029003A0050
:1043B000002300F023FC04000D0007D1002C05D1E0
:1043C0000AE06846007E8218AF32ECE70298C068C7
:1043D000009989198842DAD3029C009D082F09D1DF
:1043E0003820205C000705D5A85D302802D0761E55
:1043F0003020A8553C20801BA061A919E160216BE9
:10440000884206DA081A2062208F1C490140218761
:1044100010E000290ED53821615C14220A40102AD0
:1044200008D1626B6169521A216A511A081A002870
:1044300000DD206207B0F0BDF8B50026104F040083
:104440000D00009214E0C00707D532003B002000A9
:10445000290000F00AFB04000D00009840100090B5
:104460003000390032003B0000F0FFFA06000F0078
:1044700000980028E7D120002900F4BDEFFF0000DC
:1044800000002440F8B50024002B11D007000E00D6
:1044900015001C002978B068B847B060002809D022
:1044A000F06A401CF06200206D1C641EF2D1040012
:1044B0002000F2BD0020C043F9E7FEE7C9B2027850
:1044C0008A4203D0401C002AF9D100207047FEE741
:1044D00080B5002801D100BF07A006490B68002B5A
:1044E00003D022220021984701E000F0C5FB2220E2
:1044F00002BD00005C020020636F6E73747261691C
:104500006E742068616E646C65723A20626164202A
:104510006D65737361676500431C0178401C094237
:10452000FBD1C01A7047FEE7C9B2521E05D303780B
:10453000401C8B42F9D1401E704700207047FEE7B7
:1045400070B4103A03D378C9103A78C0FBD253073D
:1045500001D318C918C001D508C908C0D20704D3AF
:104560000B880380891C801C002A01D50B780370FE
:1045700070BC70478B0701D18307E1D0124205D090
:104580000B78491C0370401C521EF9D1704710B5BE
:10459000144600F002F8226010BD4A0053155B1C5F
:1045A00008D0520D06D003231B02FE3AD21A13057F
:1045B000C91A70470022704730B4012464054D00C9
:1045C000EC420BD85D00EC4208D80C001C436400A0
:1045D0000443144304D2994200D1904230BC704746
:1045E000FCD08B42FAD18242F8E730B40124640552
:1045F0004D00EC420BD85D00EC4208D80C001C4387
:1046000064000443144304D28B4200D1824230BC84
:104610007047FCD09942FAD19042F8E7124217D481
:104620000023DB435B0D9C464B005B0D06D06345CE
:1046300004D09B18634502D2120589187047624660
:10464000090D11430905002000B500BF00BF00BDE2
:1046500052424B005B0DF1D05B1C5B05EED25B0D53
:10466000934102D91205891A70470BD10B031B1312
:10467000C90FC907821C002043411343E4D9120526
:104680001143E1E7C90FC9070020DDE7F4464A18E6
:1046900005D200F00FF801D580174008604700F000
:1046A00009F80121C907884200D908004042604743
:1046B0004A1812D2400DC90208430121C907084314
:1046C000520D40210901521A521C06D452421F3287
:1046D00001D4D0407047C017704700207047FEE7F4
:1046E000010042221201D21E004207D002D4521E03
:1046F0000018FCD5C10A4005120589187047000052
:104700000100EED54042F446FFF7EBFF0122D2074D
:1047100011436047F0B40125ED070F005F404FD40F
:104720008B4200D1824205D98446100062468C46F5
:1047300019006346DF184C18640D7F0D3AD0661CD3
:10474000760537D0E61B352E34DCDB022B43DB0A43
:104750000C0DC9022943C912202E0DDB1700203E83
:1047600006D01F00F741F3405F400026012A774141
:10477000C01871410DD217E01700F741F2405740C1
:10478000F3415A40B340F3405A4000268018594143
:104790000AD3A21C52050FD0C207012F7241170085
:1047A0004008CB0718434908641C24054208AF4160
:1047B00070416141F0BC7047641C21050020F9E79D
:1047C0006B4010E06B40ABE7F742F3D1E943F1E710
:1047D0002442EFD100200021ECE7F0B40125ED07E1
:1047E0000F005F40EED40C00871A9C4105D2C01B1D
:1047F000A141D219634169406B40AE0ADF184C18E1
:10480000F442E1D2640D7F0DE2D0E61B362ED1DCFE
:10481000DB022B43DB0AA4460C0DC9022943C90A5B
:10482000012E28DC04D1D6075208DF073A435B0883
:10483000EF0A76429041994114D039423BD1B619E2
:1048400040414941761C394204D1761C0018494147
:104850003942FAD0B9436746B74208D9A41B2405A8
:104860002143A7E70042EAD13642E8D1A2E7E40AB1
:10487000E10700209EE7202E0BDD203E1F00F340C5
:10488000F7415F40012A002257417E429841914101
:104890000BE01700F741F2405740F3415A40B34054
:1048A000F3405A407E42904199410A0303D2641E6C
:1048B000B619404149410027641E24054208AE4113
:1048C00078416141F0BC7047F446002804D4494265
:1048D00000F013F8404260474042002905D45FD001
:1048E00000F00BF8404249426047494200F005F8A9
:1048F0004942604703460B43E6D40022030A8B4239
:104900000BD203098B4219D243088B422ED2411A93
:1049100000D20146524110467047FF2209023FD0A3
:1049200012068B4205D3121209028B4201D31212D6
:10493000090203098B4219D300E0090AC3098B421B
:1049400001D3CB01C01A524183098B4201D38B01A1
:10495000C01A524143098B4201D34B01C01A524144
:1049600003098B4201D30B01C01A5241C3088B4289
:1049700001D3CB00C01A524183088B4201D38B0074
:10498000C01A524143088B4201D34B00C01A524116
:10499000884200D3401A5241CFD201461046704798
:1049A00008B500F06FF908BDF0B40E005E400125B7
:1049B000ED072E40B446AE0ADF184C18F4423BD245
:1049C000F74241D2640D43D07F0D38D0E41BC902B9
:1049D000DB0229432B43CF0ADB0A0600B61A9F41AC
:1049E00004D2641EB6197F41B6185F416812800D6B
:1049F00024180018844222DCE80C0021B6197F41FB
:104A0000B61A9F4102D2B6185F413F1C404149414E
:104A1000F4D3241C21DD2405B6197F41B61A9F4129
:104A200005D33743C60737430026012F7041614144
:104A300066463143F0BC7047FCD1F74205D20020F6
:104A4000C14349054908F3E704D00020C143F1E719
:104A50007F0DFAD000206146ECE72442FAD1401CD9
:104A600061410F03F6D30020E2E7F0B50E005E408F
:104A70000125ED072E40B446AE0ADF184C18F4426B
:104A800008D2F7420ED2640D01D07F0D12D1002062
:104A90006146F0BD05D1F74201D87F0D05D1002058
:104AA000C143F0BDFBD1640DF9D00020C1434905DD
:104AB00049088FE0E419C902DB0229432B43DB0AD2
:104AC000460DC00231438E4630B487B295B27D4365
:104AD0002E0CADB2140C7C43A419260C24042543DF
:104AE0009CB27C43A419190C7943270CC919A4B2B0
:104AF0000F043C43090C000C97B247432E0CBE191F
:104B00003543ADB2170C4743360CBF19A6B2BF19D7
:104B10003E043543240C3E0C36199FB24743BF195F
:104B2000BCB23E0C89191F0C47437F183E04344326
:104B3000390C704680B297B247432E0CBE193543EC
:104B4000ADB2170C4743360CBF19A6B2BF193E04CD
:104B50003543240C3E0C36199FB24743BF19BCB2F3
:104B60003E0C89191F0C47437F183E043443390C0F
:104B700077463F0C90B278432E0C80190604ADB2F4
:104B80002E43050CA0B22D18120C7A435019020CBA
:104B900080B2240CA4189AB27A4312191404204348
:104BA000120C89181B0C7B43C91830BCEF0A394220
:104BB00003D1B61940414941641E6F12BF0DE41B79
:104BC0000BDBFF19BC4211DA240500274208AE4175
:104BD0007841614166463143F0BD641C05D1401CFB
:104BE0006141CF0201D34908F4E750E75DE7FEE7F2
:104BF00001487047000000001400002012422DD030
:104C0000994231D970B500251B4209D00C00002112
:104C100012E01100FFF771FE0A000021002370BDB1
:104C20000942F6D00024012649186441944200D379
:104C3000A41A7641F8D33100012601E0764109D269
:104C4000001864416D41A41A9D41F7D2A4185D413A
:104C5000B619F5D3300022002B0070BD1B42CFD116
:104C600008B500F011F808BD01D19042CAD2020087
:104C70000B0000210020704780B5012000F006F8ED
:104C800001BDFEE77047FEE77047FEE780B500BF55
:104C900000BF024A11001820ABBEFBE7260002004D
:104CA00000B5010049B2002905D40121C206D20E87
:104CB0009140974A116000BDF0B5020052B2002A3F
:104CC0001CD40327934A03005BB29C0804235C4373
:104CD0001359FF253C00044008267443A540AB430C
:104CE0008C01E4B2074008256F43BC401C4303001D
:104CF0005BB29D0804235D43545122E00F24A74A70
:104D0000032305006DB22540083DAD080426754318
:104D1000AC4605006DB22C40083CA5080424654350
:104D20005659FF271D00054008246543AF40BE4388
:104D30008C01E4B2034008256B439C403443654634
:104D40005451F0BD964A106880214900014311601A
:104D500070479348016808004005C00F7047914AAA
:104D6000106801210143116070478E4801680800F6
:104D70008007C00F70478C4B19680722914301438D
:104D80001960704788480168382008407047864B92
:104D90001968A74A0A4002431A607047824B196893
:104DA000A44A0A4002431A607047A34B1968A34AF9
:104DB0000A4002431A607047794A1068802149040A
:104DC0000143116070477648016808008001C00FF8
:104DD000704770B49A4C26689A4D354005430D4390
:104DE00016022E431E43266070BC7047944A10681A
:104DF0008021490501431160704781B0AF4A1168B5
:104E000001431160116801400091009901B07047A1
:104E100081B0AB4A116801431160116801400091F3
:104E2000009901B07047A74B1968072291430143CD
:104E300019607047A34800684007400F704770B47E
:104E40000322A14B15000D40042465435D5907263C
:104E50000C00240CA640B5430E00360C0400B440F0
:104E60002C430A4004256A439C5070BC704702687A
:104E70000121114301607047026880218A4302606A
:104E80007047026A0A4302627047F1B5012901D1F5
:104E9000002324E0042901D1012320E0102901D1BD
:104EA00002231CE0402901D1032318E080204000A8
:104EB000814201D1042312E08020C000814201D14F
:104EC00005230CE080204001814201D1062306E049
:104ED00080204002814201D1072300E0082300988E
:104EE00004001834AD4D1800C0B2285C2518AC4C35
:104EF000286803261F00FFB2E75DBE40B043160CD2
:104F00001F00FFB2E45DA64006432E60F1BD000025
:104F100000E100E000E400E0F1B5012901D1002347
:104F200024E0042901D1012320E0102901D102232A
:104F30001CE0402901D1032318E080204000814279
:104F400001D1042312E08020C000814201D1052359
:104F50000CE080204001814201D1062306E0802040
:104F60004002814201D1072300E008230098040099
:104F700018348A4D1800C0B2285C2518884C28685F
:104F80000C261F00FFB2E75DBE40B043160C1F00A9
:104F9000FFB2E45DA64006432E60F1BD1CED00E0CB
:104FA000001002406010024008100240F1B50129D3
:104FB00001D1002324E0042901D1012320E010299C
:104FC00001D102231CE0402901D1032318E08020F5
:104FD0004000814201D1042312E08020C0008142C0
:104FE00001D105230CE080204001814201D106233C
:104FF00006E080204002814201D1072300E008231F
:10500000009804001834654D1800C0B2285C2518BB
:10501000634C2868F0261F00FFB2E75DBE40B04336
:10502000160C1F00FFB2E45DA64006432E60F1BDE2
:10503000FFF0FFFFFF8FFFFF58100240FFFCFFFF54
:105040000C1002408C80FF1FF0B5012901D1002314
:1050500024E0042901D1012320E0102901D10223F9
:105060001CE0402901D1032318E080235B00994212
:1050700001D1042312E08023DB00994201D10523F2
:105080000CE080235B01994201D1062306E08023D6
:105090005B02994201D1072300E00823734F056AA0
:1050A0000A241E00F6B2BE5DB440A5431C00E4B263
:1050B0003E5D1400B4402C430462F0BD3C1002403D
:1050C0003410024000200240601802404368702201
:1050D00093430B4343607047826880218A43826018
:1050E0007047C26808211143C160704730B403683B
:1050F0000D004D4303246543AB430C004C43544324
:105100001C43046030BC704730B4C3680D004D438D
:1051100003246543AB430C004C4354431C43C4601D
:1051200030BC704780B50220FFF77DFEFFF782FE9E
:105130000228FBD1FFF706FEFFF70BFE0128FBD18B
:10514000FFF70DFEFFF711FE0128FBD180239B0521
:10515000082200210220FFF73CFEFFF72DFEFFF79B
:1051600045FEFFF730FE0128FBD10020FFF70FFEC0
:105170000220FFF700FEFFF705FE1028FBD10020FC
:10518000FFF70CFEE74800F0B7FA032000F0BAFA88
:10519000002801D000F038FB01BD00001485000894
:1051A0002085000830B58BB014210024220006AD04
:1051B000280000F02DFB182122006D46280000F089
:1051C00027FB0120FFF719FE0120FFF721FE042035
:1051D0000090022001900294039401210491059013
:1051E0006946A020C00500F098FB00210F20FFF7C2
:1051F00063FD0F20FFF754FD3F21684601830794AC
:10520000E848089009948024E40506A9200000F0ED
:10521000CCFB2000FFF730FE00212000FFF756FFF7
:105220002000FFF759FF80256D00802252022900DF
:105230002000FFF72AFE002229002000FFF76CFE65
:10524000002229002000FFF7B1FE0A2229002000D9
:10525000FFF7FAFE2000FFF70AFE29002000FFF703
:1052600010FE2000FFF73DFF0BB030BD2C8500087D
:10527000F0B589B00C210024220006AD280000F012
:10528000C7FA182122006D46280000F0C1FA042058
:10529000FFF7BEFD2020FFF7BBFD0120FFF7B8FDA3
:1052A0000220FFF7B5FD0820FFF7B2FD01250195AB
:1052B0000395049520200090D14E6946300000F0FF
:1052C0002CFB10200090A027FF056946380000F055
:1052D00024FB022000906946300000F01EFB802075
:1052E000C00000906946300000F017FB08200090D5
:1052F0006946380000F011FB00956946300000F067
:105300000CFB042000906946300000F006FB802072
:10531000000100906946300000F0FFFA8020400153
:1053200000906946380000F0F8FA802000010090F3
:105330006946380000F0F1FA8020C000009069460C
:10534000380000F0EAFA802000906946C14800F079
:10535000E4FA402000906946BE4800F0DEFA802062
:10536000800000906946380000F0D7FA80204000A5
:1053700000906946380000F0D0FA802000020090CA
:105380006946300000F0C9FA8020C00100906946EB
:10539000300000F0C2FA80208001009069463000A1
:1053A00000F0BBFA8020400100906946300000F018
:1053B000B4FA102000906946300000F0AEFA0820E0
:1053C00000906946300000F0A8FA08200090694675
:1053D000A14800F0A2FA0420009069469E4800F01F
:1053E0009CFA0220009069469B4800F096FA0095CE
:1053F0006946994800F091FA8020000200906946C1
:10540000380000F08AFA8020800100900194049511
:105410006946904800F081FA8020C0010090019414
:10542000049569468B4800F078FA0095019502943E
:10543000039404946946A64800F06FFA0220009095
:1054400001950294039404946946A14800F065FA1A
:1054500002200090019404956946380000F05DFA3E
:10546000202000900195029403940494694638002A
:1054700000F053FA402000900195029403940494A4
:105480006946380000F049FA8020009001950294A6
:10549000039404946946380000F03FFA80208001AC
:1054A000009001950294039404946946380000F03A
:1054B00034FA4020009001950294039404946946C4
:1054C000300000F02AFA80200090019502940394A5
:1054D00004946946300000F020FA7E490220FFF76C
:1054E000AEFC80200002069006A8057244720221DC
:1054F000817206A800F000FB0122802109025548B4
:10550000FFF702FE0022802109025248FFF7EEFD5C
:1055100005210720FFF7D0FB0720FFF7C1FB09B0EB
:10552000F0BD00000090D0037FB50C2100242200C4
:105530006D46280000F06CF9674D684828608020AF
:10554000C0056860AC60EC602C61042068612000DC
:1055500028762000687601263000A876EE616C621D
:10556000AC6221002C2029542C636C63AC632100B5
:105570003C202954EC64280000F0B6FB002801D040
:1055800000F042F90096019402946946280000F068
:1055900026FD002801D000F037F9280000F0DEFCDD
:1055A0007FBD0000FFFF0F0070B586B0040014211E
:1055B00000252A0001AE300000F02AF92168474892
:1055C00081421BD180204003454A1168014311608C
:1055D00011680840009000980120424A1168014378
:1055E0001160116801400091009901900320029020
:1055F000039501A9A020C00500F0ACFE06B070BD67
:105600000004005010B5384838490160002141605D
:10561000802252008260C1600122027442740A003A
:10562000827402244461112282616E23C36102628A
:1056300044623F2383624022C26203634163816309
:10564000C16300F08FFF002801D000F0DDF810BD2D
:105650000000000000080050000C005070B586B03B
:10566000050014210024220001AE300000F0D0F823
:1056700029681E48814229D10020FFF796FB80202F
:1056800040011B4A116801431160116808400090F5
:1056900000980220134A116801431160116801400B
:1056A00000910099C0218900019102900394049413
:1056B0000320059001A90F4800F04CFE00220021B4
:1056C000152001F0F4FB152001F0FBFB06B070BDC6
:1056D0000014005003001800500000200024014076
:1056E0004010024034100240B4000020006400402A
:1056F0003C1002400004005001490860704700005F
:105700001000002038B5050000241449087800284E
:105710001ED0FA2080000978FFF7EFF8010010484A
:105720000068FFF7EAF801F0D3FB00280DD1042D43
:1057300008D2002229000020C04301F0B8FB09482C
:10574000056007E00120040004E00120040001E0FE
:10575000012004002000C0B232BD00BF4C00002078
:10576000100000200C00002010B501F0C3FBFFF773
:10577000D9FCFFF77DFDFFF7D7FEFFF743FF01F0F0
:10578000B2FCFFF70FFD01F075FE01F041FE174C72
:10579000207800280ED01648806916490968FDF760
:1057A000B9FE01D001F01FFD134801F0F9FC002003
:1057B0002070EAE711480078012801D102F03CF896
:1057C00001F0B6FE01F04EFD0D480078002801D032
:1057D00001F0F8FC02F06EF80A4801780029D4D0F4
:1057E00000210170FCF79EF8CFE700006C0200205A
:1057F0001801002010020020881300006F02002012
:10580000680200206E02002000B572B6FEE7FEE7D7
:105810001206130A1A43130C1A4300BF094205D09B
:10582000830705D00270401C491EF9D17047000063
:105830001300103906D330B41400150010393CC0E1
:10584000FCD230BC490700D30CC000D504C089008D
:1058500002D30280801C002900D502707047FEE749
:1058600030B403680D004D4303246543AB430C0083
:105870004C4354431C43046030BC704710B444682C
:105880008C430B0053432343436010BC704730B438
:1058900083680D004D4303246543AB430C004C4328
:1058A00054431C43846030BC704730B4C3680D005F
:1058B0004D4303246543AB430C004C4354431C430A
:1058C000C46030BC704730B4036A0D004D434D4393
:1058D0004D430F246543AB430C004C434C434C43B6
:1058E00054431C43046230BC704730B4446A0B0A12
:1058F0000D0A6B430D0A6B430D0A6B430F256B4377
:105900009C430B0A0D0A6B430D0A6B430D0A6B4354
:1059100053432343436230BC7047F8B506000C0084
:1059200000252068E840002832D021680120A840E6
:1059300008400700002F29D06068012802D0606865
:10594000022809D1A26839003000FFF7A0FFE26801
:1059500039003000FFF792FF226939003000FFF76D
:10596000A4FF606802280CD1FF2F05D862693900B6
:105970003000FFF7A8FF04E0626939003000FFF74C
:10598000B4FF626839003000FFF76AFF6D1CC8E79A
:105990000020F2BD81627047C162704701637047A9
:1059A00042690121114341617047F8B505000E00BD
:1059B0002C68254FBD4209D08020C005854205D006
:1059C0002248854202D02248854204D17020844377
:1059D000200074680443BD4215D08020C005854274
:1059E00011D01A4885420ED0194885420BD019486B
:1059F000854208D01848854205D01848854202D013
:105A00001748854203D117482040F46804432C60AE
:105A1000B1682800FFF7C0FF31882800FFF7BAFF00
:105A2000BD4208D00C48854205D00C48854202D0C2
:105A30000B48854203D131692800FFF7AFFF2800EA
:105A4000FFF7AEFF0020F2BD002C01400004004033
:105A50000008004000200040004001400044014098
:105A600000480140FFFCFFFF1D4A1168014311601F
:105A700070471C4A1168014311607047184A116849
:105A8000814311607047174A116881431160704764
:105A9000154A1168014311607047144A11680143A7
:105AA00011607047104A11688143116070470F4AB6
:105AB00011688143116070470D4A116801431160FC
:105AC00070470B4A1168814311607047094A116899
:105AD000014311607047074A1168814311607047A4
